{
    "contractName": "NFT",
    "abi": [
        {
            "inputs": [
                {
                    "internalType": "string",
                    "name": "baseURI",
                    "type": "string"
                }
            ],
            "stateMutability": "nonpayable",
            "type": "constructor"
        },
        {
            "inputs": [],
            "name": "ApprovalCallerNotOwnerNorApproved",
            "type": "error"
        },
        {
            "inputs": [],
            "name": "ApprovalQueryForNonexistentToken",
            "type": "error"
        },
        {
            "inputs": [],
            "name": "BalanceQueryForZeroAddress",
            "type": "error"
        },
        {
            "inputs": [],
            "name": "MintERC2309QuantityExceedsLimit",
            "type": "error"
        },
        {
            "inputs": [],
            "name": "MintToZeroAddress",
            "type": "error"
        },
        {
            "inputs": [],
            "name": "MintZeroQuantity",
            "type": "error"
        },
        {
            "inputs": [
                {
                    "internalType": "address",
                    "name": "owner",
                    "type": "address"
                }
            ],
            "name": "OwnableInvalidOwner",
            "type": "error"
        },
        {
            "inputs": [
                {
                    "internalType": "address",
                    "name": "account",
                    "type": "address"
                }
            ],
            "name": "OwnableUnauthorizedAccount",
            "type": "error"
        },
        {
            "inputs": [],
            "name": "OwnerQueryForNonexistentToken",
            "type": "error"
        },
        {
            "inputs": [],
            "name": "OwnershipNotInitializedForExtraData",
            "type": "error"
        },
        {
            "inputs": [],
            "name": "ReentrancyGuardReentrantCall",
            "type": "error"
        },
        {
            "inputs": [],
            "name": "TransferCallerNotOwnerNorApproved",
            "type": "error"
        },
        {
            "inputs": [],
            "name": "TransferFromIncorrectOwner",
            "type": "error"
        },
        {
            "inputs": [],
            "name": "TransferToNonERC721ReceiverImplementer",
            "type": "error"
        },
        {
            "inputs": [],
            "name": "TransferToZeroAddress",
            "type": "error"
        },
        {
            "inputs": [],
            "name": "URIQueryForNonexistentToken",
            "type": "error"
        },
        {
            "anonymous": false,
            "inputs": [
                {
                    "indexed": true,
                    "internalType": "address",
                    "name": "owner",
                    "type": "address"
                },
                {
                    "indexed": true,
                    "internalType": "address",
                    "name": "approved",
                    "type": "address"
                },
                {
                    "indexed": true,
                    "internalType": "uint256",
                    "name": "tokenId",
                    "type": "uint256"
                }
            ],
            "name": "Approval",
            "type": "event"
        },
        {
            "anonymous": false,
            "inputs": [
                {
                    "indexed": true,
                    "internalType": "address",
                    "name": "owner",
                    "type": "address"
                },
                {
                    "indexed": true,
                    "internalType": "address",
                    "name": "operator",
                    "type": "address"
                },
                {
                    "indexed": false,
                    "internalType": "bool",
                    "name": "approved",
                    "type": "bool"
                }
            ],
            "name": "ApprovalForAll",
            "type": "event"
        },
        {
            "anonymous": false,
            "inputs": [
                {
                    "indexed": false,
                    "internalType": "string",
                    "name": "baseURI",
                    "type": "string"
                }
            ],
            "name": "BaseURIChanged",
            "type": "event"
        },
        {
            "anonymous": false,
            "inputs": [
                {
                    "indexed": true,
                    "internalType": "uint256",
                    "name": "fromTokenId",
                    "type": "uint256"
                },
                {
                    "indexed": false,
                    "internalType": "uint256",
                    "name": "toTokenId",
                    "type": "uint256"
                },
                {
                    "indexed": true,
                    "internalType": "address",
                    "name": "from",
                    "type": "address"
                },
                {
                    "indexed": true,
                    "internalType": "address",
                    "name": "to",
                    "type": "address"
                }
            ],
            "name": "ConsecutiveTransfer",
            "type": "event"
        },
        {
            "anonymous": false,
            "inputs": [
                {
                    "indexed": true,
                    "internalType": "address",
                    "name": "previousOwner",
                    "type": "address"
                },
                {
                    "indexed": true,
                    "internalType": "address",
                    "name": "newOwner",
                    "type": "address"
                }
            ],
            "name": "OwnershipTransferred",
            "type": "event"
        },
        {
            "anonymous": false,
            "inputs": [
                {
                    "indexed": false,
                    "internalType": "address",
                    "name": "mintTo",
                    "type": "address"
                },
                {
                    "indexed": false,
                    "internalType": "uint256",
                    "name": "tokensCount",
                    "type": "uint256"
                }
            ],
            "name": "PublicSaleMint",
            "type": "event"
        },
        {
            "anonymous": false,
            "inputs": [
                {
                    "indexed": true,
                    "internalType": "address",
                    "name": "from",
                    "type": "address"
                },
                {
                    "indexed": true,
                    "internalType": "address",
                    "name": "to",
                    "type": "address"
                },
                {
                    "indexed": true,
                    "internalType": "uint256",
                    "name": "tokenId",
                    "type": "uint256"
                }
            ],
            "name": "Transfer",
            "type": "event"
        },
        {
            "inputs": [
                {
                    "internalType": "address",
                    "name": "",
                    "type": "address"
                }
            ],
            "name": "AdminList",
            "outputs": [
                {
                    "internalType": "bool",
                    "name": "",
                    "type": "bool"
                }
            ],
            "stateMutability": "view",
            "type": "function"
        },
        {
            "inputs": [
                {
                    "internalType": "uint256",
                    "name": "quantity",
                    "type": "uint256"
                },
                {
                    "internalType": "address",
                    "name": "to",
                    "type": "address"
                }
            ],
            "name": "AdminMint",
            "outputs": [],
            "stateMutability": "payable",
            "type": "function"
        },
        {
            "inputs": [
                {
                    "internalType": "address",
                    "name": "",
                    "type": "address"
                }
            ],
            "name": "NFTtracker",
            "outputs": [
                {
                    "internalType": "uint256",
                    "name": "",
                    "type": "uint256"
                }
            ],
            "stateMutability": "view",
            "type": "function"
        },
        {
            "inputs": [
                {
                    "internalType": "uint256",
                    "name": "quantity",
                    "type": "uint256"
                },
                {
                    "internalType": "bytes32[]",
                    "name": "_merkleProof",
                    "type": "bytes32[]"
                }
            ],
            "name": "PresaleMint",
            "outputs": [],
            "stateMutability": "payable",
            "type": "function"
        },
        {
            "inputs": [
                {
                    "internalType": "uint256",
                    "name": "quantity",
                    "type": "uint256"
                }
            ],
            "name": "PublicMint",
            "outputs": [],
            "stateMutability": "payable",
            "type": "function"
        },
        {
            "inputs": [
                {
                    "internalType": "address",
                    "name": "to",
                    "type": "address"
                },
                {
                    "internalType": "uint256",
                    "name": "tokenId",
                    "type": "uint256"
                }
            ],
            "name": "approve",
            "outputs": [],
            "stateMutability": "payable",
            "type": "function"
        },
        {
            "inputs": [
                {
                    "internalType": "address",
                    "name": "owner",
                    "type": "address"
                }
            ],
            "name": "balanceOf",
            "outputs": [
                {
                    "internalType": "uint256",
                    "name": "",
                    "type": "uint256"
                }
            ],
            "stateMutability": "view",
            "type": "function"
        },
        {
            "inputs": [
                {
                    "internalType": "uint256",
                    "name": "tokenId",
                    "type": "uint256"
                }
            ],
            "name": "getApproved",
            "outputs": [
                {
                    "internalType": "address",
                    "name": "",
                    "type": "address"
                }
            ],
            "stateMutability": "view",
            "type": "function"
        },
        {
            "inputs": [
                {
                    "internalType": "address",
                    "name": "owner",
                    "type": "address"
                },
                {
                    "internalType": "address",
                    "name": "operator",
                    "type": "address"
                }
            ],
            "name": "isApprovedForAll",
            "outputs": [
                {
                    "internalType": "bool",
                    "name": "",
                    "type": "bool"
                }
            ],
            "stateMutability": "view",
            "type": "function"
        },
        {
            "inputs": [],
            "name": "name",
            "outputs": [
                {
                    "internalType": "string",
                    "name": "",
                    "type": "string"
                }
            ],
            "stateMutability": "view",
            "type": "function"
        },
        {
            "inputs": [],
            "name": "owner",
            "outputs": [
                {
                    "internalType": "address",
                    "name": "",
                    "type": "address"
                }
            ],
            "stateMutability": "view",
            "type": "function"
        },
        {
            "inputs": [
                {
                    "internalType": "uint256",
                    "name": "tokenId",
                    "type": "uint256"
                }
            ],
            "name": "ownerOf",
            "outputs": [
                {
                    "internalType": "address",
                    "name": "",
                    "type": "address"
                }
            ],
            "stateMutability": "view",
            "type": "function"
        },
        {
            "inputs": [],
            "name": "presaleStarted",
            "outputs": [
                {
                    "internalType": "bool",
                    "name": "",
                    "type": "bool"
                }
            ],
            "stateMutability": "view",
            "type": "function"
        },
        {
            "inputs": [],
            "name": "publicSalePrice",
            "outputs": [
                {
                    "internalType": "uint256",
                    "name": "",
                    "type": "uint256"
                }
            ],
            "stateMutability": "view",
            "type": "function"
        },
        {
            "inputs": [],
            "name": "publicSaleStarted",
            "outputs": [
                {
                    "internalType": "bool",
                    "name": "",
                    "type": "bool"
                }
            ],
            "stateMutability": "view",
            "type": "function"
        },
        {
            "inputs": [],
            "name": "renounceOwnership",
            "outputs": [],
            "stateMutability": "nonpayable",
            "type": "function"
        },
        {
            "inputs": [
                {
                    "internalType": "address",
                    "name": "from",
                    "type": "address"
                },
                {
                    "internalType": "address",
                    "name": "to",
                    "type": "address"
                },
                {
                    "internalType": "uint256",
                    "name": "tokenId",
                    "type": "uint256"
                }
            ],
            "name": "safeTransferFrom",
            "outputs": [],
            "stateMutability": "payable",
            "type": "function"
        },
        {
            "inputs": [
                {
                    "internalType": "address",
                    "name": "from",
                    "type": "address"
                },
                {
                    "internalType": "address",
                    "name": "to",
                    "type": "address"
                },
                {
                    "internalType": "uint256",
                    "name": "tokenId",
                    "type": "uint256"
                },
                {
                    "internalType": "bytes",
                    "name": "_data",
                    "type": "bytes"
                }
            ],
            "name": "safeTransferFrom",
            "outputs": [],
            "stateMutability": "payable",
            "type": "function"
        },
        {
            "inputs": [
                {
                    "internalType": "address",
                    "name": "newAdmin",
                    "type": "address"
                },
                {
                    "internalType": "bool",
                    "name": "state",
                    "type": "bool"
                }
            ],
            "name": "setAdminRole",
            "outputs": [],
            "stateMutability": "nonpayable",
            "type": "function"
        },
        {
            "inputs": [
                {
                    "internalType": "address",
                    "name": "operator",
                    "type": "address"
                },
                {
                    "internalType": "bool",
                    "name": "approved",
                    "type": "bool"
                }
            ],
            "name": "setApprovalForAll",
            "outputs": [],
            "stateMutability": "nonpayable",
            "type": "function"
        },
        {
            "inputs": [
                {
                    "internalType": "string",
                    "name": "baseURI",
                    "type": "string"
                }
            ],
            "name": "setBaseURI",
            "outputs": [],
            "stateMutability": "nonpayable",
            "type": "function"
        },
        {
            "inputs": [
                {
                    "internalType": "bytes4",
                    "name": "interfaceId",
                    "type": "bytes4"
                }
            ],
            "name": "supportsInterface",
            "outputs": [
                {
                    "internalType": "bool",
                    "name": "",
                    "type": "bool"
                }
            ],
            "stateMutability": "view",
            "type": "function"
        },
        {
            "inputs": [],
            "name": "symbol",
            "outputs": [
                {
                    "internalType": "string",
                    "name": "",
                    "type": "string"
                }
            ],
            "stateMutability": "view",
            "type": "function"
        },
        {
            "inputs": [],
            "name": "togglePresaleStarted",
            "outputs": [],
            "stateMutability": "nonpayable",
            "type": "function"
        },
        {
            "inputs": [],
            "name": "togglePublicSaleStarted",
            "outputs": [],
            "stateMutability": "nonpayable",
            "type": "function"
        },
        {
            "inputs": [
                {
                    "internalType": "uint256",
                    "name": "tokenId",
                    "type": "uint256"
                }
            ],
            "name": "tokenURI",
            "outputs": [
                {
                    "internalType": "string",
                    "name": "",
                    "type": "string"
                }
            ],
            "stateMutability": "view",
            "type": "function"
        },
        {
            "inputs": [],
            "name": "totalNFTs",
            "outputs": [
                {
                    "internalType": "uint256",
                    "name": "",
                    "type": "uint256"
                }
            ],
            "stateMutability": "view",
            "type": "function"
        },
        {
            "inputs": [],
            "name": "totalSupply",
            "outputs": [
                {
                    "internalType": "uint256",
                    "name": "",
                    "type": "uint256"
                }
            ],
            "stateMutability": "view",
            "type": "function"
        },
        {
            "inputs": [
                {
                    "internalType": "address",
                    "name": "from",
                    "type": "address"
                },
                {
                    "internalType": "address",
                    "name": "to",
                    "type": "address"
                },
                {
                    "internalType": "uint256",
                    "name": "tokenId",
                    "type": "uint256"
                }
            ],
            "name": "transferFrom",
            "outputs": [],
            "stateMutability": "payable",
            "type": "function"
        },
        {
            "inputs": [
                {
                    "internalType": "address",
                    "name": "newOwner",
                    "type": "address"
                }
            ],
            "name": "transferOwnership",
            "outputs": [],
            "stateMutability": "nonpayable",
            "type": "function"
        },
        {
            "inputs": [],
            "name": "withdrawAll",
            "outputs": [],
            "stateMutability": "nonpayable",
            "type": "function"
        }
    ],
    "bytecode": "6080604052662386f26fc10000600d553480156200001b575f80fd5b5060405162001da138038062001da18339810160408190526200003e9162000134565b336040518060400160405280600a81526020016921b7b63632b1ba34b7b760b11b8152506040518060400160405280600381526020016213919560ea1b81525081600290816200008f91906200028e565b5060036200009e82826200028e565b50505f805550620000af81620000cf565b506001600955600b620000c382826200028e565b50505f600c5562000356565b600880546001600160a01b038381166001600160a01b0319831681179093556040519116919082907f8be0079c531659141344cd1fd0a4f28419497f9722a3daafe3b4186f6b6457e0905f90a35050565b634e487b7160e01b5f52604160045260245ffd5b5f602080838503121562000146575f80fd5b82516001600160401b03808211156200015d575f80fd5b818501915085601f83011262000171575f80fd5b81518181111562000186576200018662000120565b604051601f8201601f19908116603f01168101908382118183101715620001b157620001b162000120565b816040528281528886848701011115620001c9575f80fd5b5f93505b82841015620001ec5784840186015181850187015292850192620001cd565b5f86848301015280965050505050505092915050565b600181811c908216806200021757607f821691505b6020821081036200023657634e487b7160e01b5f52602260045260245ffd5b50919050565b601f82111562000289575f81815260208120601f850160051c81016020861015620002645750805b601f850160051c820191505b81811015620002855782815560010162000270565b5050505b505050565b81516001600160401b03811115620002aa57620002aa62000120565b620002c281620002bb845462000202565b846200023c565b602080601f831160018114620002f8575f8415620002e05750858301515b5f19600386901b1c1916600185901b17855562000285565b5f85815260208120601f198616915b82811015620003285788860151825594840194600190910190840162000307565b50858210156200034657878501515f19600388901b60f8161c191681555b5050505050600190811b01905550565b611a3d80620003645f395ff3fe6080604052600436106101d0575f3560e01c806370a08231116100fd578063a22cb46511610092578063e720df1511610062578063e720df15146104ce578063e985e9c5146104ed578063ed1fc2a21461050c578063f2fde38b14610520575f80fd5b8063a22cb46514610464578063a2e9147714610483578063b88d4fde1461049c578063c87b56dd146104af575f80fd5b806395d89b41116100cd57806395d89b41146104155780639b6860c8146104295780639b6eae201461043e5780639fb17e3414610451575f80fd5b806370a08231146103b1578063715018a6146103d0578063853828b6146103e45780638da5cb5b146103f8575f80fd5b806315c914db1161017357806342842e0e1161014357806342842e0e1461034d57806355f804b3146103605780636352211e1461037f57806364bfaaf71461039e575f80fd5b806315c914db146102e457806318160ddd1461030f57806323b872dd146103265780632f81457514610339575f80fd5b806307fb28e2116101ae57806307fb28e214610247578063081812fc14610275578063095ea7b3146102ac5780630d0e96da146102c1575f80fd5b806301ffc9a7146101d457806304549d6f1461020857806306fdde0314610226575b5f80fd5b3480156101df575f80fd5b506101f36101ee366004611433565b61053f565b60405190151581526020015b60405180910390f35b348015610213575f80fd5b506010546101f390610100900460ff1681565b348015610231575f80fd5b5061023a610590565b6040516101ff919061149b565b348015610252575f80fd5b506101f36102613660046114c3565b600f6020525f908152604090205460ff1681565b348015610280575f80fd5b5061029461028f3660046114dc565b610620565b6040516001600160a01b0390911681526020016101ff565b6102bf6102ba3660046114f3565b610659565b005b3480156102cc575f80fd5b506102d6600c5481565b6040519081526020016101ff565b3480156102ef575f80fd5b506102d66102fe3660046114c3565b600e6020525f908152604090205481565b34801561031a575f80fd5b506001545f54036102d6565b6102bf61033436600461151b565b610669565b348015610344575f80fd5b506102bf6107c3565b6102bf61035b36600461151b565b6107df565b34801561036b575f80fd5b506102bf61037a3660046115db565b6107fe565b34801561038a575f80fd5b506102946103993660046114dc565b61084d565b6102bf6103ac366004611620565b610857565b3480156103bc575f80fd5b506102d66103cb3660046114c3565b6109dd565b3480156103db575f80fd5b506102bf610a21565b3480156103ef575f80fd5b506102bf610a34565b348015610403575f80fd5b506008546001600160a01b0316610294565b348015610420575f80fd5b5061023a610a9e565b348015610434575f80fd5b506102d6600d5481565b6102bf61044c366004611698565b610aad565b6102bf61045f3660046114dc565b610b5f565b34801561046f575f80fd5b506102bf61047e3660046116c2565b610c61565b34801561048e575f80fd5b506010546101f39060ff1681565b6102bf6104aa3660046116fb565b610ccc565b3480156104ba575f80fd5b5061023a6104c93660046114dc565b610d0d565b3480156104d9575f80fd5b506102bf6104e83660046116c2565b610d43565b3480156104f8575f80fd5b506101f3610507366004611772565b610d75565b348015610517575f80fd5b506102bf610da2565b34801561052b575f80fd5b506102bf61053a3660046114c3565b610dc7565b5f6301ffc9a760e01b6001600160e01b03198316148061056f57506380ac58cd60e01b6001600160e01b03198316145b8061058a5750635b5e139f60e01b6001600160e01b03198316145b92915050565b60606002805461059f9061179a565b80601f01602080910402602001604051908101604052809291908181526020018280546105cb9061179a565b80156106165780601f106105ed57610100808354040283529160200191610616565b820191905f5260205f20905b8154815290600101906020018083116105f957829003601f168201915b5050505050905090565b5f61062a82610e01565b61063e5761063e6333d1c03960e21b610e43565b505f908152600660205260409020546001600160a01b031690565b61066582826001610e4b565b5050565b5f61067382610eec565b6001600160a01b0394851694909150811684146106995761069962a1148160e81b610e43565b5f8281526006602052604090208054338082146001600160a01b038816909114176106dc576106c88633610d75565b6106dc576106dc632ce44b5f60e11b610e43565b80156106e6575f82555b6001600160a01b038681165f9081526005602052604080822080545f19019055918716808252919020805460010190554260a01b17600160e11b175f85815260046020526040812091909155600160e11b8416900361077257600184015f818152600460205260408120549003610770575f548114610770575f8181526004602052604090208490555b505b6001600160a01b0385168481887fddf252ad1be2c89b69c2b068fc378daa952ba7f163c4a11628f55a4df523b3ef5f80a4805f036107ba576107ba633a954ecd60e21b610e43565b50505050505050565b6107cb610f7c565b6010805460ff19811660ff90911615179055565b6107f983838360405180602001604052805f815250610ccc565b505050565b610806610f7c565b600b610812828261181f565b507f5411e8ebf1636d9e83d5fc4900bf80cbac82e8790da2a4c94db4895e889eedf681604051610842919061149b565b60405180910390a150565b5f61058a82610eec565b601054610100900460ff166108b35760405162461bcd60e51b815260206004820152601b60248201527f50726573616c6520686173206e6f74207374617274656420796574000000000060448201526064015b60405180910390fd5b6108bb610fa9565b6040516bffffffffffffffffffffffff193360601b1660208201525f906034016040516020818303038152906040528051906020012090506109338383808060200260200160405190810160405280939291908181526020018383602002808284375f9201919091525050600a549150849050610fd3565b61098f5760405162461bcd60e51b815260206004820152602760248201527f50726573616c65206d757374206265206d696e7465642066726f6d206f7572206044820152667765627369746560c81b60648201526084016108aa565b6109993385610fe8565b83600c5f8282546109aa91906118ef565b9091555050335f908152600e6020526040812080548692906109cd9084906118ef565b9091555050600160095550505050565b5f6001600160a01b0382166109fc576109fc6323d3ad8160e21b610e43565b506001600160a01b03165f9081526005602052604090205467ffffffffffffffff1690565b610a29610f7c565b610a325f611001565b565b610a3c610f7c565b4780610a805760405162461bcd60e51b8152602060048201526013602482015272496e737566666963656e742062616c616e636560681b60448201526064016108aa565b610a9b610a956008546001600160a01b031690565b47611052565b50565b60606003805461059f9061179a565b610ab5610fa9565b335f908152600f602052604090205460ff16610b135760405162461bcd60e51b815260206004820152601e60248201527f43616c6c657220646f65736e277420686176652061646d696e20726f6c65000060448201526064016108aa565b610b1d8183610fe8565b81600c5f828254610b2e91906118ef565b9091555050335f908152600e602052604081208054849290610b519084906118ef565b909155505060016009555050565b60105460ff16610bb15760405162461bcd60e51b815260206004820152601f60248201527f5075626c69632073616c6520686173206e6f742073746172746564207965740060448201526064016108aa565b610bb9610fa9565b3481600d54610bc89190611902565b1115610c165760405162461bcd60e51b815260206004820152601860248201527f46756e6420616d6f756e7420697320696e636f7272656374000000000000000060448201526064016108aa565b610c203382610fe8565b80600c5f828254610c3191906118ef565b9091555050335f908152600e602052604081208054839290610c549084906118ef565b9091555050600160095550565b335f8181526007602090815260408083206001600160a01b03871680855290835292819020805460ff191686151590811790915590519081529192917f17307eab39ab6107e8899845ad3d59bd9653f200f220920489ca2b5937696c31910160405180910390a35050565b610cd7848484610669565b6001600160a01b0383163b15610d0757610cf3848484846110f1565b610d0757610d076368d2bf6b60e11b610e43565b50505050565b60605f610d19836111d0565b905080604051602001610d2c9190611919565b604051602081830303815290604052915050919050565b610d4b610f7c565b6001600160a01b03919091165f908152600f60205260409020805460ff1916911515919091179055565b6001600160a01b039182165f90815260076020908152604080832093909416825291909152205460ff1690565b610daa610f7c565b6010805461ff001981166101009182900460ff1615909102179055565b610dcf610f7c565b6001600160a01b038116610df857604051631e4fbdf760e01b81525f60048201526024016108aa565b610a9b81611001565b5f8054821015610e3e575f5b505f8281526004602052604081205490819003610e3457610e2d83611941565b9250610e0d565b600160e01b161590505b919050565b805f5260045ffd5b5f610e558361084d565b9050818015610e6d5750336001600160a01b03821614155b15610e9057610e7c8133610d75565b610e9057610e906367d9dca160e11b610e43565b5f8381526006602052604080822080546001600160a01b0319166001600160a01b0388811691821790925591518693918516917f8c5be1e5ebec7d5bd14f71427d1e84f3dd0314c0f7b2291e5b200ac8c7c3b92591a450505050565b5f8181526004602052604081205490819003610f5a575f548210610f1a57610f1a636f96cda160e11b610e43565b5b505f19015f818152600460205260409020548015610f1b57600160e01b81165f03610f4557919050565b610f55636f96cda160e11b610e43565b610f1b565b600160e01b81165f03610f6c57919050565b610e3e636f96cda160e11b610e43565b6008546001600160a01b03163314610a325760405163118cdaa760e01b81523360048201526024016108aa565b600260095403610fcc57604051633ee5aeb560e01b815260040160405180910390fd5b6002600955565b5f82610fdf8584611238565b14949350505050565b610665828260405180602001604052805f815250611284565b600880546001600160a01b038381166001600160a01b0319831681179093556040519116919082907f8be0079c531659141344cd1fd0a4f28419497f9722a3daafe3b4186f6b6457e0905f90a35050565b5f826001600160a01b0316826040515f6040518083038185875af1925050503d805f811461109b576040519150601f19603f3d011682016040523d82523d5f602084013e6110a0565b606091505b50509050806107f95760405162461bcd60e51b815260206004820152601960248201527f4661696c656420746f207769647468647261772045746865720000000000000060448201526064016108aa565b604051630a85bd0160e11b81525f906001600160a01b0385169063150b7a0290611125903390899088908890600401611956565b6020604051808303815f875af192505050801561115f575060408051601f3d908101601f1916820190925261115c91810190611992565b60015b6111b2573d80801561118c576040519150601f19603f3d011682016040523d82523d5f602084013e611191565b606091505b5080515f036111aa576111aa6368d2bf6b60e11b610e43565b805181602001fd5b6001600160e01b031916630a85bd0160e11b1490505b949350505050565b60606111db82610e01565b6111ef576111ef630a14c4b560e41b610e43565b5f6111f86112e9565b905080515f036112165760405180602001604052805f815250611231565b80611220846112f8565b604051602001610d2c9291906119ad565b9392505050565b5f81815b845181101561127c576112688286838151811061125b5761125b6119db565b602002602001015161133b565b915080611274816119ef565b91505061123c565b509392505050565b61128e8383611364565b6001600160a01b0383163b156107f9575f548281035b6112b65f8683806001019450866110f1565b6112ca576112ca6368d2bf6b60e11b610e43565b8181106112a457815f54146112e2576112e25f610e43565b5050505050565b6060600b805461059f9061179a565b606060a06040510180604052602081039150505f815280825b600183039250600a81066030018353600a9004806113115750819003601f19909101908152919050565b5f818310611355575f828152602084905260409020611231565b505f9182526020526040902090565b5f80549082900361137f5761137f63b562e8dd60e01b610e43565b5f8181526004602090815260408083206001600160a01b0387164260a01b6001881460e11b178117909155808452600590925282208054680100000000000000018602019055908190036113dc576113dc622e076360e81b610e43565b818301825b80835f7fddf252ad1be2c89b69c2b068fc378daa952ba7f163c4a11628f55a4df523b3ef5f80a48181600101915081036113e157505f5550505050565b6001600160e01b031981168114610a9b575f80fd5b5f60208284031215611443575f80fd5b81356112318161141e565b5f5b83811015611468578181015183820152602001611450565b50505f910152565b5f815180845261148781602086016020860161144e565b601f01601f19169290920160200192915050565b602081525f6112316020830184611470565b80356001600160a01b0381168114610e3e575f80fd5b5f602082840312156114d3575f80fd5b611231826114ad565b5f602082840312156114ec575f80fd5b5035919050565b5f8060408385031215611504575f80fd5b61150d836114ad565b946020939093013593505050565b5f805f6060848603121561152d575f80fd5b611536846114ad565b9250611544602085016114ad565b9150604084013590509250925092565b634e487b7160e01b5f52604160045260245ffd5b5f67ffffffffffffffff8084111561158257611582611554565b604051601f8501601f19908116603f011681019082821181831017156115aa576115aa611554565b816040528093508581528686860111156115c2575f80fd5b858560208301375f602087830101525050509392505050565b5f602082840312156115eb575f80fd5b813567ffffffffffffffff811115611601575f80fd5b8201601f81018413611611575f80fd5b6111c884823560208401611568565b5f805f60408486031215611632575f80fd5b83359250602084013567ffffffffffffffff80821115611650575f80fd5b818601915086601f830112611663575f80fd5b813581811115611671575f80fd5b8760208260051b8501011115611685575f80fd5b6020830194508093505050509250925092565b5f80604083850312156116a9575f80fd5b823591506116b9602084016114ad565b90509250929050565b5f80604083850312156116d3575f80fd5b6116dc836114ad565b9150602083013580151581146116f0575f80fd5b809150509250929050565b5f805f806080858703121561170e575f80fd5b611717856114ad565b9350611725602086016114ad565b925060408501359150606085013567ffffffffffffffff811115611747575f80fd5b8501601f81018713611757575f80fd5b61176687823560208401611568565b91505092959194509250565b5f8060408385031215611783575f80fd5b61178c836114ad565b91506116b9602084016114ad565b600181811c908216806117ae57607f821691505b6020821081036117cc57634e487b7160e01b5f52602260045260245ffd5b50919050565b601f8211156107f9575f81815260208120601f850160051c810160208610156117f85750805b601f850160051c820191505b8181101561181757828155600101611804565b505050505050565b815167ffffffffffffffff81111561183957611839611554565b61184d81611847845461179a565b846117d2565b602080601f831160018114611880575f84156118695750858301515b5f19600386901b1c1916600185901b178555611817565b5f85815260208120601f198616915b828110156118ae5788860151825594840194600190910190840161188f565b50858210156118cb57878501515f19600388901b60f8161c191681555b5050505050600190811b01905550565b634e487b7160e01b5f52601160045260245ffd5b8082018082111561058a5761058a6118db565b808202811582820484141761058a5761058a6118db565b5f825161192a81846020870161144e565b64173539b7b760d91b920191825250600501919050565b5f8161194f5761194f6118db565b505f190190565b6001600160a01b03858116825284166020820152604081018390526080606082018190525f9061198890830184611470565b9695505050505050565b5f602082840312156119a2575f80fd5b81516112318161141e565b5f83516119be81846020880161144e565b8351908301906119d281836020880161144e565b01949350505050565b634e487b7160e01b5f52603260045260245ffd5b5f60018201611a0057611a006118db565b506001019056fea2646970667358221220956fa8b00a5c8ecb8fcd4c506df3bd0116bf4bf6340e1a54b8f9975335273de464736f6c63430008150033",
    "sourcePath": "c:/Users/1/Desktop/Test NFT/contracts/NFT.sol",
    "compiler": {
        "name": "solc",
        "version": "0.8.21+commit.d9974bed"
    },
    "functionHashes": {
        "AdminList(address)": "07fb28e2",
        "AdminMint(uint256,address)": "9b6eae20",
        "NFTtracker(address)": "15c914db",
        "PresaleMint(uint256,bytes32[])": "64bfaaf7",
        "PublicMint(uint256)": "9fb17e34",
        "approve(address,uint256)": "095ea7b3",
        "balanceOf(address)": "70a08231",
        "getApproved(uint256)": "081812fc",
        "isApprovedForAll(address,address)": "e985e9c5",
        "name()": "06fdde03",
        "owner()": "8da5cb5b",
        "ownerOf(uint256)": "6352211e",
        "presaleStarted()": "04549d6f",
        "publicSalePrice()": "9b6860c8",
        "publicSaleStarted()": "a2e91477",
        "renounceOwnership()": "715018a6",
        "safeTransferFrom(address,address,uint256)": "42842e0e",
        "safeTransferFrom(address,address,uint256,bytes)": "b88d4fde",
        "setAdminRole(address,bool)": "e720df15",
        "setApprovalForAll(address,bool)": "a22cb465",
        "setBaseURI(string)": "55f804b3",
        "supportsInterface(bytes4)": "01ffc9a7",
        "symbol()": "95d89b41",
        "togglePresaleStarted()": "ed1fc2a2",
        "togglePublicSaleStarted()": "2f814575",
        "tokenURI(uint256)": "c87b56dd",
        "totalNFTs()": "0d0e96da",
        "totalSupply()": "18160ddd",
        "transferFrom(address,address,uint256)": "23b872dd",
        "transferOwnership(address)": "f2fde38b",
        "withdrawAll()": "853828b6"
    },
    "gasEstimates": {
        "creation": {
            "codeDepositCost": "1343400",
            "executionCost": "infinite",
            "totalCost": "infinite"
        },
        "external": {
            "AdminList(address)": "2563",
            "AdminMint(uint256,address)": "infinite",
            "NFTtracker(address)": "2562",
            "PresaleMint(uint256,bytes32[])": "infinite",
            "PublicMint(uint256)": "infinite",
            "approve(address,uint256)": "infinite",
            "balanceOf(address)": "2637",
            "getApproved(uint256)": "infinite",
            "isApprovedForAll(address,address)": "infinite",
            "name()": "infinite",
            "owner()": "2442",
            "ownerOf(uint256)": "infinite",
            "presaleStarted()": "2378",
            "publicSalePrice()": "2361",
            "publicSaleStarted()": "2365",
            "renounceOwnership()": "infinite",
            "safeTransferFrom(address,address,uint256)": "infinite",
            "safeTransferFrom(address,address,uint256,bytes)": "infinite",
            "setAdminRole(address,bool)": "26899",
            "setApprovalForAll(address,bool)": "26627",
            "setBaseURI(string)": "infinite",
            "supportsInterface(bytes4)": "554",
            "symbol()": "infinite",
            "togglePresaleStarted()": "26656",
            "togglePublicSaleStarted()": "26658",
            "tokenURI(uint256)": "infinite",
            "totalNFTs()": "2406",
            "totalSupply()": "4464",
            "transferFrom(address,address,uint256)": "infinite",
            "transferOwnership(address)": "28443",
            "withdrawAll()": "infinite"
        },
        "internal": {
            "_baseURI()": "infinite",
            "_widthdraw(address,uint256)": "infinite"
        }
    }
}